S015000046696E616C5F70726F6A6563742E73726563CF
S11300000C943A000C94D8080C9457000C945700A4
S11300100C9457000C9457000C9457000C94570000
S11300200C9457000C9457000C9457000C945700F0
S11300300C9457000C9457000C9457000C945700E0
S11300400C9457000C9457000C9457000C945700D0
S11300500C94570071028F027302750277027902C1
S11300607B027D027F02810283028502870289026C
S11300708B028D0211241FBECFE5D8E0DEBFCDBFB9
S113008015E0A0E6B0E0ECECF0E202C005900D92C1
S1130090A23DB107D9F726E0A2EDB5E001C01D925B
S11300A0AE30B207E1F70E94C70B0C9464100C94B5
S11300B0000017B883E886B90895877097B1907ED9
S11300C097B997B1892B87B986B1806486B9349B77
S11300D0FECF86B1806186B984B195B1089541E0BF
S11300E066E083E00E943A0141E067E083E00E9419
S11300F03A0140E066E083E00E94AD0140E067E041
S113010083E00E94AD010895CF93C62F81110BC0E7
S113011040E066E083E00E94AD0140E067E083E0F8
S11301200E94AD0119C0813059F440E066E083E0DB
S11301300E94AD0141E067E083E00E94AD010CC084
S1130140823051F441E066E083E00E94AD0140E07A
S113015067E083E00E94AD018C2F0E94160ECF91C0
S113016008951F93CF93DF93EC01162F0E943B0E4B
S11301700E94520E883009F5CE0188279770880FA7
S1130180892F881F990B9195806A0E94440E0E94C2
S1130190520E8831A1F48C2F0E94440E0E94520EFC
S11301A0883279F4812F0E94440E0E94520E8832C4
S11301B051F40E94410E81E007C080E005C080E058
S11301C003C080E001C080E0DF91CF911F910895CA
S11301D0EF92FF920F931F93CF93DF93EC018B0168
S11301E00E943B0E0E94520E883091F57E01EE244F
S11301F087E0F822EE0CEF2CEE1CFF08F1948E2D14
S1130200806A0E94440E0E94520E883119F58C2F88
S11302100E94440E0E94520E8832F1F40E943B0E5A
S11302200E94520E8031D1F48E2D816A0E94440EB8
S11302300E94520E8034A1F40E944B0EF801808378
S11302400E94520E883571F40E94410E81E00BC069
S113025080E009C080E007C080E005C080E003C002
S113026080E001C080E0DF91CF911F910F91FF905A
S1130270EF900895683008F06FC0843008F06CC0C7
S1130280813001F130F08230B1F1833009F44CC097
S11302900895413059F42AB381E090E002C0880FF8
S11302A0991F6A95E2F7822B8ABB08952AB381E0ED
S11302B090E002C0880F991F6A95E2F78095822327
S11302C08ABB0895413059F427B381E090E002C01D
S11302D0880F991F6A95E2F7822B87BB089527B38D
S11302E081E090E002C0880F991F6A95E2F780953B
S11302F0822387BB0895413059F424B381E090E010
S113030002C0880F991F6A95E2F7822B84BB089577
S113031024B381E090E002C0880F991F6A95E2F748
S11303208095822384BB0895413059F421B381E040
S113033090E002C0880F991F6A95E2F7822B81BB77
S1130340089521B381E090E002C0880F991F6A9557
S1130350E2F78095822381BB0895683008F06FC06E
S1130360843008F06CC0813001F130F08230B1F19A
S1130370833009F44CC00895413059F42BB381E023
S113038090E002C0880F991F6A95E2F7822B8BBB1D
S113039008952BB381E090E002C0880F991F6A95FD
S11303A0E2F7809582238BBB0895413059F428B33A
S11303B081E090E002C0880F991F6A95E2F7822BD2
S11303C088BB089528B381E090E002C0880F991F8C
S11303D06A95E2F78095822388BB0895413059F4E9
S11303E025B381E090E002C0880F991F6A95E2F777
S11303F0822B85BB089525B381E090E002C0880F6D
S1130400991F6A95E2F78095822385BB0895413050
S113041059F422B381E090E002C0880F991F6A95D5
S1130420E2F7822B82BB089522B381E090E002C000
S1130430880F991F6A95E2F78095822382BB0895FD
S11304406830B0F58430B0F5813089F028F082301E
S1130450C9F0833011F130C089B390E002C09595A2
S113046087956A95E2F780FF29C081E0089586B3F5
S113047090E002C0959587956A95E2F780FF20C0C9
S113048081E0089583B390E002C0959587956A95BD
S1130490E2F780FF17C081E0089580B390E002C0C6
S11304A0959587956A95E2F780FF0EC081E00895DF
S11304B080E0089580E0089580E0089580E0089544
S11304C080E0089580E0089580E00895482F50E08A
S11304D0FA013197E031F10518F5E65DFF4F0C9410
S11304E04F1087E3089589E3089585E2089584E32E
S11304F0089585E3089586E308958AE2089581E3E3
S1130500089582E3089583E308958DE2089583E3D3
S1130510089580E308958DE308958BE2089588E3B8
S113052008951F93CF93DF9340E062E082E00E943E
S11305303A0140E063E082E00E943A0140E064E076
S113054082E00E943A0140E065E082E00E943A01C4
S113055040E064E080E00E943A0140E065E080E031
S11305600E943A0140E066E080E00E943A0140E0E7
S113057067E080E00E943A01D0E026C012E01D0F3F
S113058041E0612F82E00E943A0140E0612F82E065
S11305900E94AD01C0E010C064E06C0F80E00E94D6
S11305A02002811108C08D2F880F880F8C0F8F5F58
S11305B00E9466020CC0CF5FC43070F340E0612F2C
S11305C082E00E943A01DF5FD430C0F2D5CFDF91E0
S11305D0CF911F910895CF93C82F40E062E081E04E
S11305E00E94AD0189EF90E00197F1F700C000008F
S11305F040E061E080E00E94AD0189EF90E0019766
S1130600F1F700C0000041E061E081E00E94AD012B
S113061089EF90E00197F1F700C000004C2F407182
S113062050E055954795559547955595479555955A
S1130630479564E081E00E94AD014C2F407250E088
S1130640559547955595479555954795559547958E
S11306505595479565E081E00E94AD014C2F4074AB
S113066050E0042E452F000C441F550B000C441F72
S1130670551F66E081E00E94AD014C2F441F4427C2
S1130680441F67E081E00E94AD0189EF90E001978B
S1130690F1F700C0000040E061E081E00E94AD019C
S11306A089EF90E00197F1F700C0000041E061E0BC
S11306B081E00E94AD0189EF90E00197F1F700C05D
S11306C000004C2F417064E081E00E94AD014C2F8A
S11306D0427050E05595479565E081E00E94AD0178
S11306E04C2F447050E0559547955595479566E0D5
S11306F081E00E94AD01C8704C2F50E0559547959C
S1130700559547955595479567E081E00E94AD0161
S113071089EF90E00197F1F700C0000040E061E04C
S113072081E00E94AD0189EF90E00197F1F700C0EC
S1130730000041E061E081E00E94AD0189EF90E0BA
S11307400197F1F700C00000CF91089541E061E006
S113075080E00E943A0141E061E081E00E943A01B8
S113076041E062E081E00E943A0187E893E1019769
S1130770F1F700C0000041E064E081E00E943A012A
S113078041E065E081E00E943A0141E066E081E0F9
S11307900E943A0141E067E081E00E943A0183E36C
S11307A00E94EB0282E30E94EB0288E20E94EB02C9
S11307B08CE00E94EB0281E00E94EB020895CF934B
S11307C0C82F41E061E080E00E94AD0189EF90E034
S11307D00197F1F700C0000041E061E081E00E9470
S11307E0AD0189EF90E00197F1F700C000004C2FB4
S11307F0407150E0559547955595479555954795C2
S11308005595479564E081E00E94AD014C2F4072FC
S113081050E0559547955595479555954795559568
S113082047955595479565E081E00E94AD014C2FB1
S1130830407450E0042E452F000C441F550B000C4F
S1130840441F551F66E081E00E94AD014C2F441FF8
S11308504427441F67E081E00E94AD0189EF90E0E6
S11308600197F1F700C0000040E061E081E00E94E0
S1130870AD0189EF90E00197F1F700C0000041E07D
S113088061E081E00E94AD0189EF90E00197F1F70A
S113089000C000004C2F417064E081E00E94AD0173
S11308A04C2F427050E05595479565E081E00E94D9
S11308B0AD014C2F447050E055954795559547959B
S11308C066E081E00E94AD01C8704C2F50E0559560
S11308D04795559547955595479567E081E00E9462
S11308E0AD0189EF90E00197F1F700C0000040E00E
S11308F061E081E00E94AD0189EF90E00197F1F79A
S113090000C0000041E061E081E00E94AD0189EF98
S113091090E00197F1F700C00000CF910895CF93C4
S1130920DF93EC0103C00E94DF03219688818111CB
S1130930FACFDF91CF910895813031F070F0823099
S113094031F0833039F00AC090E4960F07C090E18B
S1130950960F04C090E5960F01C0962F892F8068EA
S11309600E94EB02089581E00E94EB02089541E0A9
S113097062E080E00E943A0141E066E082E00E9489
S11309803A0141E067E082E00E943A0141E063E01D
S113099083E00E943A0141E064E083E00E943A016E
S11309A0089540E00E94AD01089541E00E94AD0128
S11309B0089583E00E945D009C01AEEEB2E00E94C7
S11309C055100E94320F20E030ED4FEB54E40E94AA
S11309D0910E0E94030F862F089581E690E00E94F5
S11309E07E0E2FE38DE093E0215080409040E1F7AC
S11309F000C000008EE690E00E947E0E86E990E042
S1130A000E947E0E85EA90E00E947E0E8FEA90E0BE
S1130A100E947E0E0E947A0E8093D9050895CF938A
S1130A20C0E00EC061E38C2F90E00E94B1008823E7
S1130A30C9F3CF5F83EC99E00197F1F700C00000A0
S1130A40C43080F3C0E00FC08C2F90E060E3409688
S1130A500E94B1008823C1F3CF5F83EC99E0019732
S1130A60F1F700C00000C43078F388EB90E00E94F6
S1130A707E0ECF9108950F931F93CF938CEC90E04B
S1130A800E947E0E8FED90E00E947E0EC0E00BC0AF
S1130A900C2F10E00E947A0EF801E650FA4F808382
S1130AA00E94760ECF5FC43098F382E595E00E94F1
S1130AB07E0E8CEE90E00E947E0E80EA91E00E9411
S1130AC07E0EC0E00BC00C2F10E00E947A0EF801DD
S1130AD0E250FA4F80830E94760ECF5FC43098F3C1
S1130AE082E595E00E947E0ECF911F910F910895AB
S1130AF0CF93C0E010C08C2F90E0BC016E5F794FA3
S1130B000E94E8008823B9F3CF5F83EC99E0019752
S1130B10F1F700C00000C43070F3C0E011C08C2FA6
S1130B2090E0BC01665F794F40960E94E8008823FC
S1130B30B1F3CF5F83EC99E00197F1F700C00000B7
S1130B40C43068F3909102068091FA05981308C0A6
S1130B5090910A068091FE05981721F080E003C069
S1130B6080E001C081E0CF910895CF93C0E03CC004
S1130B700E943B050E9478058130B1F481E595E03F
S1130B800E947E0E83E091E00E947E0E81E595E056
S1130B900E947E0E2FE38DE093E021508040904030
S1130BA0E1F700C0000022C088E191E00E947E0EBF
S1130BB0CF5FC330C9F480E291E00E947E0E41E031
S1130BC060E080E00E943A0183E391E00E947E0E9F
S1130BD00E94B3048CE391E00E948F0441E060E042
S1130BE080E00E94AD01FACFC33010F2CF91089596
S1130BF00F931F93CF938DE491E00E947E0E86E5C0
S1130C0091E00E947E0E809160000E94760E82E543
S1130C1095E00E947E0E87E691E00E947E0E89E7B1
S1130C2091E00E947E0EC0E00BC00C2F10E00E94E9
S1130C307A0EF801EB52FA4F80830E94760ECF5F52
S1130C40C43098F382E595E00E947E0E85E891E039
S1130C500E947E0E8BE991E00E947E0EC0E00BC0E4
S1130C600C2F10E00E947A0EF801EA51FA4F8083AB
S1130C700E94760ECF5FC43098F382E595E00E941F
S1130C807E0ECF911F910F910895CF93C0E016C0AF
S1130C908091D30590E080962C2F30E0B901625208
S1130CA07A4F820F931F0E94E800882389F3CF5F55
S1130CB083EC99E00197F1F700C00000C43040F3E1
S1130CC0C0E017C08091D30590E080589F4F2C2F2F
S1130CD030E0B9016E517A4F820F931F0E94E800F1
S1130CE0882381F3CF5F83EC99E00197F1F700C08B
S1130CF00000C43038F3CF9108959091D5058091C8
S1130D00DE05981308C09091E6058091E2059817D6
S1130D1021F080E0089580E0089581E00895CF9364
S1130D20C0E30E9445060E947D06813059F08091FF
S1130D306000C81749F08091D3058C5F8093D30578
S1130D40CF5FEFCF81E001C080E0CF910895CF93D2
S1130D50C0E03CC00E94F8050E948F068130B1F4C7
S1130D6081E595E00E947E0E83E091E00E947E0E74
S1130D7081E595E00E947E0E2FE38DE093E0215003
S1130D8080409040E1F700C0000022C088E191E07B
S1130D900E947E0ECF5FC330C9F480E291E00E94CE
S1130DA07E0E41E060E080E00E943A0183E391E03E
S1130DB00E947E0E0E94B3048CE391E00E948F0493
S1130DC041E060E080E00E94AD01FACFC33010F250
S1130DD0CF91089540E062E083E00E943A0141E04F
S1130DE062E083E00E94AD018BB7806E8BBF85B754
S1130DF0836085BF78940895CF93DF930E94B304F2
S1130E008BEA91E00E948F0460E081E00E949C04E0
S1130E1085EB91E00E948F04809160000E94DF03C3
S1130E202FE38DE093E0215080409040E1F700C033
S1130E3000000E94B3048DEB91E00E948F0460E0F7
S1130E4081E00E949C048DEC91E00E948F042FE3CA
S1130E508DE093E0215080409040E1F700C0000015
S1130E600E94B3048AED91E00E948F04C0E018C090
S1130E700E949102D82F8FE493EC0197F1F700C000
S1130E8000008D2F0E94DF038FE493EC0197F1F7AC
S1130E9000C00000EC2FF0E0E651FA4FD083CF5FA2
S1130EA0C43030F360E081E00E949C0484EE91E061
S1130EB00E948F04C0E018C00E949102D82F8FE4D2
S1130EC093EC0197F1F700C000008AE20E94DF036F
S1130ED08FE493EC0197F1F700C00000EC2FF0E0F1
S1130EE0EA50FA4FD083CF5FC43030F3DF91CF9113
S1130EF00895CF93C0E016C08091D20590E080960B
S1130F002C2F30E0B9016E507A4F820F931F0E944C
S1130F10E800882389F3CF5F83EC99E00197F1F728
S1130F2000C00000C43040F3C0E017C08091D20577
S1130F3090E080589F4F2C2F30E0B90162517A4FD6
S1130F40820F931F0E94E800882381F3CF5F83EC14
S1130F5099E00197F1F700C00000C43038F3CF9155
S1130F6008959091EA058091F205981308C0909134
S1130F70F6058091EE05981721F080E0089580E051
S1130F80089581E00895CF93C0E30E9479070E94F9
S1130F90B107813061F08091D2058C5F8093D205D6
S1130FA0CF5F80916000C813F0CF80E001C081E082
S1130FB0CF910895CF93C0E046C00E94FC060E94E2
S1130FC0C307813081F40E94B3048EEE91E00E9445
S1130FD08F042FE38DE093E0215080409040E1F7AF
S1130FE000C0000033C00E94B30460E080E00E94AF
S1130FF09C048EEF91E00E948F042FE986E891E033
S1131000215080409040E1F700C00000CF5FC33022
S1131010D1F40E94B3048CE391E00E948F042FE387
S11310208DE093E0215080409040E1F700C0000043
S113103041E060E080E00E943A0141E060E080E04D
S11310400E94AD01FACFC33008F4B7CFCF91089511
S11310500E94B30460E080E00E949C0487E092E078
S11310600E948F0460E081E00E949C0483E192E08E
S11310700E948F042FE38DE093E021508040904044
S1131080E1F700C000000E94B30460E080E00E9429
S11310909C048EE192E00E948F0465E080E00E944F
S11310A09C0483E292E00E948F046BE080E00E9443
S11310B09C0489E292E00E948F0462E081E00E9435
S11310C09C048FE292E00E948F0468E081E00E9419
S11310D09C0485E392E00E948F040E949102833372
S11310E099F028F4813341F0823351F018C08433ED
S11310F079F0853389F013C080E00E94160E0FC08A
S113110089E10E94160E0BC082E30E94160E07C0EE
S11311108BE40E94160E03C084E60E94160E0E9401
S1131120920808950E94B3048CE392E00E948F0415
S113113060E081E00E949C048DE492E00E948F04B0
S11311402FE38DE093E0215080409040E1F700C010
S113115000000E94B30484E592E00E948F0468E0DA
S113116080E00E949C048AE592E00E948F0460E083
S113117081E00E949C0481E692E00E948F0468E072
S113118081E00E949C048AE692E00E948F040E94FF
S11311909102823339F0833341F0813341F40E9468
S11311A0FE0808950E94760908950E94280808956B
S11311B01F920F920FB60F9211242F933F934F93C8
S11311C05F936F937F938F939F93AF93BF93EF93AB
S11311D0FF930E94DA070E949208FF91EF91BF915A
S11311E0AF919F918F917F916F915F914F913F91BB
S11311F02F910F900FBE0F901F9018950E94B3046B
S113120081E792E00E948F048AE792E00E948F04B3
S113121060E081E00E949C0483E892E00E948F04D5
S11312200E949102823339F0833341F0813341F4D7
S11312300E94210908950E94540908950E94920869
S11312400895CF930E94B30461E080E00E949C045F
S11312508AE892E00E948F0463E081E00E949C048B
S11312608AE992E00E948F04C1E014C060E081E04A
S11312700E942002C82F0E94D9048C3128F062E316
S113128081E00E94840006C08C3120F460E080E09C
S11312900E948400C13051F360E080E00E94840029
S11312A00E94FE08CF91089560E080E00E948400CF
S11312B00E94B30461E080E00E949C048AE892E00A
S11312C00E948F0463E081E00E949C0484EA92E01F
S11312D00E948F042FE38DE093E0215080409040E2
S11312E0E1F700C000000E94FE0808950E94B304C4
S11312F060E080E00E949C048EEA92E00E948F04E9
S113130060E081E00E949C0480EC92E00E948F04E3
S11313100E949102EFE4F3EC3197F1F700C0000072
S11313208233A9F0833321F1813321F50E94B30480
S113133087EC92E00E948F048FE493EC0197F1F71D
S113134000C000000E9491020E94BB0908950E94FF
S1131350B30480ED92E00E948F04EFE4F3EC319744
S1131360F1F700C000000E9491020E94E90908956B
S11313700E9492080895EFE4F3EC3197F1F700C06E
S113138000008333A9F028F4813341F0823359F00B
S11313901DC0843391F08533A9F018C062E080E069
S11313A00E94D50413C066E082E00E94D5040EC0FA
S11313B067E082E00E94D50409C063E083E00E94F4
S11313C0D50404C064E083E00E94D5040E94760939
S11313D00895EFE4F3EC3197F1F700C00000833394
S11313E0A9F028F4813341F0823359F01DC08433CD
S11313F091F08533A9F018C062E080E00E94D10426
S113140013C066E082E00E94D1040EC067E082E06F
S11314100E94D10409C063E083E00E94D10404C0A7
S113142064E083E00E94D1040E947609089581B3A8
S1131430806281BB1DBC1CBC84E39CE097BD86BD5F
S113144082E88FBD8BE18EBD8AED92E00E947E0E14
S11314508CEE92E00E947E0E8FEF92E00E947E0E50
S11314600E94B30461E080E00E949C0488E093E061
S11314700E948F040E947A0E823329F1833309F487
S113148042C08133B9F70E94B30466E080E00E9451
S11314909C0485E193E00E948F0463E081E00E9454
S11314A09C048AE193E00E948F0485E290E09BBD56
S11314B08ABD2FED83E994E0215080409040E1F70C
S11314C000C00000D7CF0E94B30466E080E00E9411
S11314D09C0485E193E00E948F0463E081E00E9414
S11314E09C0488E293E00E948F0487E190E09BBD16
S11314F08ABD2FED83E994E0215080409040E1F7CC
S113150000C00000B7CF0E94860AB4CF86E393E000
S11315100E947E0E0E94B30461E080E00E949C045D
S11315208EE593E00E948F048BE693E00E947E0E8A
S11315308FE793E00E947E0E8FE893E00E947E0E78
S113154082EA93E00E947E0E82EB93E00E947E0E7C
S11315508FEC93E00E947E0E8EE690E00E947E0E59
S113156081E595E00E947E0E0E947A0E833391F00D
S113157028F4813349F0823351F00895853379F0AA
S113158060F0863379F008950E94F10B08950E946B
S1131590D50A08950E94520B08950E94170A0E94CA
S11315A0D70D08950E94B40B08958CEE93E00E9429
S11315B07E0E84E194E00E947E0E81E294E00E941B
S11315C07E0E8FEF92E00E947E0E0E94B30461E0D3
S11315D084E00E949C0486ED92E00E948F0463E004
S11315E081E00E949C048AE992E00E948F040E9498
S11315F07A0E823369F08333A1F08133E9F48FE208
S113160094E00E947E0E0E947A0E0E94880C089537
S11316108FE294E00E947E0E0E947A0E0E94B00C2B
S113162008958091D905813319F40E94860A08959A
S1131630823311F40E941D0B089586E393E00E9407
S11316407E0E8BE693E00E947E0E8FE793E00E946D
S11316507E0E8FE893E00E947E0E86E494E00E9462
S11316607E0E8EE690E00E947E0E81E595E00E945B
S11316707E0E0E947A0E823361F018F4813331F0C9
S11316800895833349F0843351F008950E94F10B97
S113169008950E94D50A08950E94520B08950E944D
S11316A0B40B089583E694E00E947E0E2FE38DE050
S11316B093E0215080409040E1F700C000008CE7A7
S11316C094E00E947E0E84E894E00E947E0E8DE8F1
S11316D094E00E947E0E86E994E00E947E0E8FE9DB
S11316E094E00E947E0E0E94B30461E080E00E94B8
S11316F09C0489EA94E00E948F0463E081E00E94E4
S11317009C048AE992E00E948F040E947A0E83333B
S113171099F028F4813341F0823351F018C08433B6
S113172079F0853389F013C080E00E94160E0FC053
S113173089E10E94160E0BC082E30E94160E07C0B8
S11317408BE40E94160E03C084E60E94160E80915C
S1131750D905813311F40E94860A8091D905823318
S113176011F40E941D0B08950E94ED04813319F0B9
S1131770823341F008950E940F050E94B5050E942E
S1131780860A08950E94A7060E941D0B0895CF9310
S1131790DF9300D0CDB7DEB785E0898382E08A830A
S11317A0CE0101960E94320E60E875E280E090E07E
S11317B00E94550E0E9459000E946F000E94A603C9
S11317C00E946F000E9459000E94B7040E94EA061A
S11317D00E94B40B80E090E00F900F90DF91CF91C6
S11317E0089585EB94E00E947E0E2FE38DE093E054
S11317F0215080409040E1F700C000008AED94E061
S11318000E947E0E81EF94E00E947E0E8FEF92E0A4
S11318100E947E0E8EE690E00E947E0E81E595E0A9
S11318200E947E0E0E94B30461E080E00E949C044A
S11318308AE892E00E948F0463E081E00E949C04A5
S11318408AE992E00E948F040E947A0E823339F072
S1131850833341F0813389F40E943E0C08950E9441
S1131860700C08958091D905813319F40E94860A79
S11318700895823311F40E941D0B0895CF9389E0DB
S113188095E00E947E0E81E595E00E947E0E2FE396
S11318908DE093E0215080409040E1F700C00000CB
S11318A0C1E014C060E081E00E942002C82F0E94C1
S11318B0D9048C3128F062E381E00E94840006C0E0
S11318C08C3120F460E080E00E948400C13051F348
S11318D060E080E00E9484000E94F10BCF910895A3
S11318E060E080E00E9484008FE295E00E947E0E1A
S11318F081E595E00E947E0E2FE38DE093E0215078
S113190080409040E1F700C000000E94F10B089570
S11319108333A9F028F4813341F0823359F01DC098
S1131920843391F08533A9F018C062E080E00E940E
S1131930D50413C066E082E00E94D5040EC067E0BF
S113194082E00E94D50409C063E083E00E94D504CC
S113195004C064E083E00E94D5040E94D50A08957F
S11319608333A9F028F4813341F0823359F01DC048
S1131970843391F08533A9F018C062E080E00E94BE
S1131980D10413C066E082E00E94D1040EC067E077
S113199082E00E94D10409C063E083E00E94D10484
S11319A004C064E083E00E94D1040E94D50A089533
S11319B00F931F93CF9387E691E00E947E0E89E7F1
S11319C091E00E947E0EC0E00BC00C2F10E00E943C
S11319D07A0EF801E652FA4F80830E94760ECF5FAA
S11319E0C43098F382E595E00E947E0E85E891E08C
S11319F00E947E0E80EA91E00E947E0EC0E00BC041
S1131A000C2F10E00E947A0EF801EA5FF94F8083F0
S1131A100E94760ECF5FC43098F382E595E00E9471
S1131A207E0EC0E018C02C2F30E0F901E652FA4FC8
S1131A3060819091D405892F90E08096820F931F46
S1131A400E94B100882379F3CF5F83EC99E001977A
S1131A50F1F700C00000C43030F3C0E019C02C2FEF
S1131A6030E0F901EA5FF94F60819091D405892F44
S1131A7090E080589F4F820F931F0E94B1008823EB
S1131A8071F3CF5F83EC99E00197F1F700C0000098
S1131A90C43028F38091D4058C5F8093D405809161
S1131AA060008F5F809360008091D905813311F4C9
S1131AB00E94860A8091D905823311F40E941D0B7D
S1131AC0CF911F910F910895CF93DF9384E595E013
S1131AD00E947E0E8CE695E00E947E0E809160004E
S1131AE00E94760E82E595E00E947E0E0E947A0E98
S1131AF0C82F0E94760E82E595E00E947E0ED0E00B
S1131B0015C08C2F90E08997880F991F880F991F13
S1131B1060E38D0F911D0E94B100882391F3DF5F74
S1131B2083EC99E00197F1F700C00000D43048F34A
S1131B30D0E015C08C2F90E04197880F991F880F33
S1131B40991F60E38D0F911D0E94B100882391F3CA
S1131B50DF5F83EC99E00197F1F700C00000D43017
S1131B6048F38091D40584508093D405809160001B
S1131B708150809360008FE895E00E947E0E9FE97B
S1131B8026E881E0915020408040E1F700C0000049
S1131B908091D905813311F40E94860A8091D90578
S1131BA0823311F40E941D0BDF91CF91089589E9CE
S1131BB095E00E947E0E86E591E00E947E0E809163
S1131BC060000E94760E82E595E00E947E0E2FE36F
S1131BD08DE093E0215080409040E1F700C0000088
S1131BE085EB95E00E947E0E82EC95E00E947E0ECD
S1131BF08FEF92E00E947E0E0E947A0E823339F0BB
S1131C00833341F0813389F40E94D80C08950E94F3
S1131C10640D08958091D905813319F40E94860AD0
S1131C200895823311F40E941D0B08959AE693BF20
S1131C3012BE682F70E080E090E00E94320F20E036
S1131C4030E048EC52E40E94910E20E030E04FE78F
S1131C5053E40E94C00F0E94030F6CBF87B38860D7
S1131C6087BB0895FC01218120B911B8808182B914
S1131C7084E086BF089584EA86BF06B607FEFDCFDA
S1131C80089584E986BF089583B984E886BF06B6BB
S1131C9007FEFDCF089584E886BF06B607FEFDCF94
S1131CA083B1089581B1887F089522E02BB928E19A
S1131CB02AB926E820BDDC01CB01880F991FAA1F91
S1131CC0BB1F880F991FAA1FBB1F9C01AD01220FC8
S1131CD0331F441F551F60E472E48FE090E00E94BC
S1131CE02D102150310930BD29B908955D9BFECFD7
S1131CF08CB908955F9BFECF8CB108950F931F9309
S1131D00CF938C01C0E003C00E94760ECF5FF80130
S1131D10EC0FF11D80818111F7CFCF911F910F91AD
S1131D2008950E94A50E0C94860F0E947F0F58F010
S1131D300E94780F40F029F45F3F29F00C946F0F54
S1131D4051110C94BA0F0C94750F0E94970F68F3FD
S1131D509923B1F3552391F3951B550BBB27AA2760
S1131D6062177307840738F09F5F5F4F220F331F9A
S1131D70441FAA1FA9F335D00E2E3AF0E0E832D062
S1131D8091505040E695001CCAF72BD0FE2F29D065
S1131D90660F771F881FBB1F261737074807AB0737
S1131DA0B0E809F0BB0B802DBF01FF2793585F4FAC
S1131DB03AF09E3F510578F00C946F0F0C94BA0FD3
S1131DC05F3FE4F3983ED4F3869577956795B7958E
S1131DD0F7959F5FC9F7880F911D9695879597F999
S1131DE00895E1E0660F771F881FBB1F6217730712
S1131DF08407BA0720F0621B730B840BBA0BEE1F27
S1131E0088F7E09508950E949F0F88F09F5798F0F7
S1131E10B92F9927B751B0F0E1F0660F771F881FEB
S1131E20991F1AF0BA95C9F714C0B13091F00E9405
S1131E30B90FB1E008950C94B90F672F782F882754
S1131E40B85F39F0B93FCCF3869577956795B3952C
S1131E50D9F73EF490958095709561957F4F8F4F9B
S1131E609F4F0895E89409C097FB3EF490958095A0
S1131E70709561957F4F8F4F9F4F9923A9F0F92F4C
S1131E8096E9BB279395F695879577956795B795CA
S1131E90F111F8CFFAF4BB0F11F460FF1BC06F5FB0
S1131EA07F4F8F4F9F4F16C0882311F096E911C0C2
S1131EB0772321F09EE8872F762F05C0662371F0E3
S1131EC096E8862F70E060E02AF09A95660F771FF7
S1131ED0881FDAF7880F9695879597F9089597F9EB
S1131EE09F6780E870E060E008959FEF80EC0895BC
S1131EF000240A94161617061806090608950024E5
S1131F000A9412161306140605060895092E03945E
S1131F10000C11F4882352F0BB0F40F4BF2B11F4D2
S1131F2060FF04C06F5F7F4F8F4F9F4F089557FD31
S1131F309058440F551F59F05F3F71F04795880F33
S1131F4097FB991F61F09F3F79F0879508951216CA
S1131F5013061406551FF2CF4695F1DF08C0161676
S1131F6017061806991FF1CF869571056105089427
S1131F700895E894BB2766277727CB0197F908953E
S1131F800E94D30F0C94860F0E94780F38F00E94A1
S1131F907F0F20F0952311F00C946F0F0C94750FA4
S1131FA011240C94BA0F0E94970F70F3959FC1F3FC
S1131FB0950F50E0551F629FF001729FBB27F00DF3
S1131FC0B11D639FAA27F00DB11DAA1F649F662748
S1131FD0B00DA11D661F829F2227B00DA11D621F97
S1131FE0739FB00DA11D621F839FA00D611D221F51
S1131FF0749F3327A00D611D231F849F600D211D35
S1132000822F762F6A2F11249F5750409AF0F1F0B7
S113201088234AF0EE0FFF1FBB1F661F771F881F20
S113202091505040A9F79E3F510580F00C946F0FDA
S11320300C94BA0F5F3FE4F3983ED4F386957795FA
S11320406795B795F795E7959F5FC1F7FE2B880FC6
S1132050911D9695879597F90895A1E21A2EAA1BCA
S1132060BB1BFD010DC0AA1FBB1FEE1FFF1FA21744
S1132070B307E407F50720F0A21BB30BE40BF50B41
S1132080661F771F881F991F1A9469F760957095CA
S1132090809590959B01AC01BD01CF010895EE0F91
S11320A0FF1F0590F491E02D0994A29FB001B39F06
S11320B0C001A39F700D811D1124911DB29F700D4D
S10F20C0811D1124911D0895F894FFCF98
S11320CC3077656C636F6D652E2E2E210D002A2AD8
S11320DC2A2A2A2A2A2A2A2A2A2A2A2A2A2A2A2A50
S11320EC2A2A2A2A2A2A2A2A2A2A2A2A2A2A2A2A40
S11320FC2A2A2A200D0077686F2061726520796F77
S113210C753F200D00313A61646D696E200D00320B
S113211C3A75736572200D00796F75206861766568
S113212C203320747269616C73200D00656E7465C4
S113213C722061646D696E206E616D65200D0061A5
S113214C646D696E206E616D653A2000656E746510
S113215C722061646D696E2070617373776F726441
S113216C200D0077656C636F6D65206261636B2E67
S113217C2E2E203A29200D0066616C7365200D000B
S113218C7365637572697479206D6F64652E2E2E78
S113219C200D006572726F72203A280073656375A6
S11321AC72697479206D6F64652E2E2E0068656CCF
S11321BC6C6F21200D007573657273206E6F772020
S11321CC657175616C2000656E746572207573653C
S11321DC72206E616D65200D0075736572206E61E1
S11321EC6D653A2000656E74657220757365722096
S11321FC70617373776F7264200D00757365722050
S113220C70617373776F72643A200068656C6C6FDD
S113221C2E2E2E210075736572733D2000656E742D
S113222C65722075736572206E616D6500616E64F4
S113223C2070617373776F726400757365726E616D
S113224C6D653A0070617373776F72643A007765E9
S113225C6C636F6D65206261636B203A2900666163
S113226C6C7365203A280063686F6F7365206C612A
S113227C6D700070657263656E7461676500313AE8
S113228C302500323A32352500333A3530250034C6
S113229C3A37352500353A31303025007072657384
S11322AC732074686520646576696365006E756D6A
S11322BC62657200313A412F6300323A6C65647383
S11322CC00333A64696D6D657200343A75617274E9
S11322DC00313A6F6E412F432000323A6F666641EB
S11322EC2F4300333A4D61696E0061697220636F4C
S11322FC6E646974696F6E65720052554E494E472F
S113230C2E2E2E00636C6F7365642E2E2E00313AC4
S113231C6C65645F6F6E2F323A6C65646F66660031
S113232C333A6D61696E006F70656E206C65640084
S113233C636C6F7365206C656400313A6F70656E05
S113234C2074686520646F6F72200D00323A636CE0
S113235C6F73652074686520646F6F72200D003391
S113236C3A4D61696E200D00646F6F7220636F6E5D
S113237C74726F6C00646F6F72006973206F706598
S113238C6E696E672E2E2E00697320636C6F7369F1
S113239C6E672E2E2E002A2A2A2A2A2A2A2A2A2A2A
S11323AC63686F6F73652074686520646576696310
S11323BC652A2A2A2A2A2A2A2A2A2A200D006D6109
S11323CC696E206F7074696F6E7300313A61697253
S11323DC20636F6E646974696F6E6572200D0032D0
S11323EC3A6C65647320636F6E74726F6C0D00339A
S11323FC3A64696D6D6572206369726375697420E2
S113240C0D00343A646F6F7220636F6E74726F6C6C
S113241C0D00353A616464696E67206F72207265D1
S113242C6D6F76696E67207573657273200D003657
S113243C3A72657475726E20746F207468652066C8
S113244C697273742070616765200D002A2A2A2A28
S113245C2A2A2A2A2A2A2A2A2A2A2A6C6564206DDC
S113246C656E752A2A2A2A2A2A2A2A2A2A2A2A2AF2
S113247C2A200D00313A6F70656E206C6564200D56
S113248C00323A636C6F7365206C6564200D0070C8
S113249C7265737320746865206C6564206E756D49
S11324AC626572200D00343A72657475726E207414
S11324BC6F20746865206669727374207061676537
S11324CC200D0063686F6F7365206C616D702070F4
S11324DC657263656E74616765200D00313A203056
S11324EC25200D00323A20323525200D00333A20B8
S11324FC353025200D00343A20373525200D003594
S113250C3A2031303025200D0064696D6D657220E0
S113251C6C616D70002A2A2A2A2A2A2A2A61697275
S113252C20636F6E646974696F6E6572206D656E7D
S113253C752A2A2A2A2A2A200D00313A6169722026
S113254C636F6E646974696F6E6572206F6E200DB3
S113255C00323A61697220636F6E646974696F6EDC
S113256C6572206F6666200D0020202020202061DB
S113257C697220636F6E646974696F6E6572207220
S113258C756E696E6E672E2E2E202020200D002075
S113259C202020202061697220636F6E6469746945
S11325AC6F6E657220636C6F7365642E2E2E202003
S11325BC20200D007772697465207468652075732A
S11325CC6572206E756D626572200D0074686520ED
S11325DC6E756D6265722073686F756C64206265CC
S11325EC2067726561746572207468616E20006482
S11325FC6F6E652E2E2E200D0063686F6F73652031
S113260C616464206F722072656D6F7665207573DA
S113261C6572200D00313A61646420757365722013
S113262C0D00323A72656D6F766520757365722094
S105263C0D008B
S9030000FC
